:100000000C94F2020C94E70B0C94C00B0C941A03A2
:100010000C941A030C941A030C941A030C941A03EC
:100020000C941A030C941A030C941A030C941A03DC
:100030000C941A030C941A030C941A030C941A03CC
:100040000C94760B0C941A030C94690A0C94430AD2
:100050000C941A030C941A030C941A030C941A03AC
:100060000C941A030C941A030000000024002700CB
:100070002A0000000000250028002B004E6F20639E
:100080006172642C2077726F6E67206368697020DC
:1000900073656C6563742070696E2C206F722053D9
:1000A00050492070726F626C656D3F0043616E272E
:1000B00074206163636573732053442063617264C9
:1000C0002E20446F206E6F74207265666F726D61B2
:1000D000742E004E6F206572726F7220666F756E9F
:1000E000642E0043616E2774206F70656E20726FFE
:1000F0006F74206469726563746F72792E00496E43
:1001000076616C696420666F726D61742C20726513
:10011000666F726D61742053442E0046726F6D20BD
:10012000737461636B20456E746572656420002989
:10013000206661696C65640046726F6D207374613E
:10014000636B2063686469722800556E6B6E6F770D
:100150006E0A00534458430053444843005344320A
:1001600000534431000A4361726420747970653A27
:1001700020006361726453697A65206661696C6509
:10018000640043616E277420696E697469616C69EB
:100190007A6521004F4B0052435644004845414484
:1001A0000046696E6973686564004F70656E4E65E0
:1001B0007874206661696C6564212046696E697394
:1001C0006865640046696C6520636F756E74203ADB
:1001D000202000526573657474696E67002C305876
:1001E000005344206572726F72436F64653A203029
:1001F000580000002110422063308440A550C660A2
:10020000E770088129914AA16BB18CC1ADD1CEE1D3
:10021000EFF13112100273325222B5529442F7724A
:10022000D662399318837BB35AA3BDD39CC3FFF323
:10023000DEE36224433420040114E664C774A4445A
:1002400085546AA54BB528850995EEE5CFF5ACC573
:100250008DD55336722611163006D776F66695562A
:10026000B4465BB77AA719973887DFF7FEE79DD7C3
:10027000BCC7C448E5588668A778400861180228BA
:100280002338CCC9EDD98EE9AFF9488969990AA913
:100290002BB9F55AD44AB77A966A711A500A333A8A
:1002A000122AFDDBDCCBBFFB9EEB799B588B3BBB63
:1002B0001AABA66C877CE44CC55C222C033C600C1A
:1002C000411CAEED8FFDECCDCDDD2AAD0BBD688DB3
:1002D000499D977EB66ED55EF44E133E322E511E6A
:1002E000700E9FFFBEEFDDDFFCCF1BBF3AAF599F03
:1002F000788F8891A981CAB1EBA10CD12DC14EF1A3
:100300006FE18010A100C230E32004502540467008
:100310006760B9839893FBA3DAB33DC31CD37FE333
:100320005EF3B1029012F322D23235421452776258
:100330005672EAB5CBA5A89589856EF54FE52CD503
:100340000DC5E234C324A0148104667447642454A8
:100350000544DBA7FAB79987B8975FE77EF71DC713
:100360003CD7D326F2369106B016576676761546F8
:1003700034564CD96DC90EF92FE9C899E9898AB963
:10038000ABA94458654806782768C018E108823848
:10039000A3287DCB5CDB3FEB1EFBF98BD89BBBAB73
:1003A0009ABB754A545A376A167AF10AD01AB32A98
:1003B000923A2EFD0FED6CDD4DCDAABD8BADE89DC3
:1003C000C98D267C076C645C454CA23C832CE01CE8
:1003D000C10C1FEF3EFF5DCF7CDF9BAFBABFD98F53
:1003E000F89F176E367E554E745E932EB23ED10E38
:1003F000F01EA46E842D842F84AEA56F852E8530CB
:1004000085AFA9478D1803A9FE8D1903A9318D1455
:1004100003A9EA8D1503A9378501A91B8D11D0A960
:100420000885BAA570C903F005A9818D0DDCA9085E
:10043000C56AD011A569C901D00BA9008D20D020B3
:1004400059A64CAEA7A56AC980F008A9008D20D096
:100450006C6900A0808E83028C840286C184C2A94C
:10046000368501A9008D20D04CE2FC01080C08DF84
:10047000079E2032303632000000201A08206E0815
:10048000207C084C1708D8A99320D2FFA9008D2002
:10049000D0A90B8D21D020340820570820480860AF
:1004A000A200A90F9D00D89D00D99D00DA9D00DB18
:1004B000E8D0F160A07F8C0DDC8C0DDDAD0DDCADE6
:1004C0000DDD60A07F8C0DDC8C0DDDAD0DDCAD0D88
:1004D000DD0E19D0A9008D1AD060A200BD8A08F0E7
:1004E000069D6805E8D0F560A200BDB808F0069D3D
:1004F000E005E8D0F5602D20190F152013080F1521
:100500000C0420100C010305200912110801030B33
:1005100036342E101207200F0E2013042020030162
:10052000120421002D200C010914012009121108C8
:1005300001030B36342E101207200B0F1214090E74
:10054000200A15151205050E210046726F6D2073E5
:100550007461636B20456E746572656420002920A8
:100560006661696C65640046726F6D2073746163C7
:100570006B206368646972280046494C454E4F54AD
:10058000464F554E4421004C6F6164696E670043CD
:1005900052542100424F4F544552210000000000A8
:1005A00023002600290004040404040404040202B5
:1005B00002020202030303030303010204081020E2
:1005C00040800102040810200102040810200000ED
:1005D0000008000201000003040700000000000002
:1005E0000000CF2C11241FBECFEFD8E0DEBFCDBF5F
:1005F00012E0A0E0B1E0E6EDFBE502C005900D924F
:10060000AE30B107D9F727E0AEE0B2E001C01D92ED
:10061000A538B207E1F712E0C2EFD2E004C021979B
:10062000FE010E94B02DC13FD107C9F70E9471267B
:100630000C94E92D0C94000099B1282F207F9F7015
:10064000922B9BB996B18F70907F892B88B90895B2
:10065000089580E090E008952098289A08952898B9
:10066000209A089599B1282F207F9F70922B9BB9D3
:1006700096B18F70907F892B88B980915E0290919E
:100680005F028F3F9105D1F40E942F0383E190E038
:100690000197F1F70E942C0383E191E00197F1F7B4
:1006A00010925F0210925E0280915C0290915D0256
:1006B000019690935D0280935C0208950E942F033F
:1006C00083E190E00197F1F70E942C0387E790E027
:1006D0000197F1F780915E0290915F0201969093ED
:1006E0005F0280935E020895CF93C82F8091070127
:1006F0008130B1F48C2F0E941C030E942F038FE0E5
:1007000090E00197F1F70E942C0387E890E00197B1
:10071000F1F780915E0290915F0201960C9482083D
:10072000883011F00C949A0880915B02811104C00A
:10073000C093140281E023C0813021F4C0931302DE
:1007400082E01DC0823021F4C093120283E017C002
:10075000833021F4C093110284E011C0843021F46D
:10076000C093100285E00BC0853021F4C0930F02C6
:1007700086E005C0863039F4C0930E0287E080938E
:100780005B020C949A0810925B02809114020E9402
:100790001C030E942F030000000000000000000066
:1007A0000000000000000000000000000000000049
:1007B0000000000000000000000000000000000039
:1007C0000000000000000000000000000000000029
:1007D0000000000000000000000000000000000019
:1007E0000000000000000000000000000000000009
:1007F00000000000000000000000000000000000F9
:1008000000000000000000000000000000000000E8
:1008100000000000000000000000000000000000D8
:1008200000000000000000000000000000000000C8
:1008300000000000000000000E942C0300000000E7
:1008400000000000000000000000000000000000A8
:100850000000000000000000000000000000000098
:100860000000000000000000000000000000000088
:100870000000000000000000000000000000000078
:100AA00000000000809113020E941C03000000005F
:100AB0000000000000000000000000000000000036
:100AC0000000000000000000000000000000000026
:100AD0000000000000000000000000000000000016
:100AE0000000000000000000000000000000000006
:100AF00000000000000000000000000000000000F6
:100B000000000000000000000000000000000000E5
:100B100000000000000000000000000000000000D5
:100B200000000000000000000000000000000000C5
:100B300000000000000000000000000000000000B5
:100B400000000000000000000000000000000000A5
:100B50000000000000000000000000000000000095
:100B60000000000000000000000000000000000085
:100B70000000000000000000000000000000000075
:100B80000000000000000000000000000000000065
:100B90000000000000000000000000000000000055
:100BA0000000000000000000000000000000000045
:100BB000809112020E941C0300000000000000004F
:100BC0000000000000000000000000000000000025
:100BD0000000000000000000000000000000000015
:100BE0000000000000000000000000000000000005
:100BF00000000000000000000000000000000000F5
:100C000000000000000000000000000000000000E4
:100C100000000000000000000000000000000000D4
:100C200000000000000000000000000000000000C4
:100C300000000000000000000000000000000000B4
:100C400000000000000000000000000000000000A4
:100C50000000000000000000000000000000000094
:100C60000000000000000000000000000000000084
:100C70000000000000000000000000000000000074
:100C80000000000000000000000000000000000064
:100C90000000000000000000000000000000000054
:100CA0000000000000000000000000000000000044
:100CB0000000000000000000000000008091110210
:100CC0000E941C0300000000000000000000000063
:100CD0000000000000000000000000000000000014
:100CE0000000000000000000000000000000000004
:100CF00000000000000000000000000000000000F4
:100D000000000000000000000000000000000000E3
:100D100000000000000000000000000000000000D3
:100D200000000000000000000000000000000000C3
:100D300000000000000000000000000000000000B3
:100D400000000000000000000000000000000000A3
:100D50000000000000000000000000000000000093
:100D60000000000000000000000000000000000083
:100D70000000000000000000000000000000000073
:100D80000000000000000000000000000000000063
:100D90000000000000000000000000000000000053
:100DA0000000000000000000000000000000000043
:100DB0000000000000000000000000000000000033
:100DC0000000000000000000809110020E941C033F
:100DD0000000000000000000000000000000000013
:100DE0000000000000000000000000000000000003
:100DF00000000000000000000000000000000000F3
:100E000000000000000000000000000000000000E2
:100E100000000000000000000000000000000000D2
:100E200000000000000000000000000000000000C2
:100E300000000000000000000000000000000000B2
:100E400000000000000000000000000000000000A2
:100E50000000000000000000000000000000000092
:100E60000000000000000000000000000000000082
:100E70000000000000000000000000000000000072
:100E80000000000000000000000000000000000062
:100E90000000000000000000000000000000000052
:100EA0000000000000000000000000000000000042
:100EB0000000000000000000000000000000000032
:100EC0000000000000000000000000000000000022
:100ED0000000000080910F020E941C03000000002F
:100EE0000000000000000000000000000000000002
:100EF00000000000000000000000000000000000F2
:100F000000000000000000000000000000000000E1
:100F100000000000000000000000000000000000D1
:100F200000000000000000000000000000000000C1
:100F300000000000000000000000000000000000B1
:100F400000000000000000000000000000000000A1
:100F50000000000000000000000000000000000091
:100F60000000000000000000000000000000000081
:100F70000000000000000000000000000000000071
:100F80000000000000000000000000000000000061
:100F90000000000000000000000000000000000051
:100FA0000000000000000000000000000000000041
:100FB0000000000000000000000000000000000031
:100FC0000000000000000000000000000000000021
:100FD0000000000000000000000000000000000011
:100FE00080910E020E941C0300000000000000001F
:100FF00000000000000000000000000000000000F1
:1010000000000000000000000000000000000000E0
:1010100000000000000000000000000000000000D0
:1010200000000000000000000000000000000000C0
:1010300000000000000000000000000000000000B0
:1010400000000000000000000000000000000000A0
:101050000000000000000000000000000000000090
:101060000000000000000000000000000000000080
:101070000000000000000000000000000000000070
:101080000000000000000000000000000000000060
:101090000000000000000000000000000000000050
:1010A0000000000000000000000000000000000040
:1010B0000000000000000000000000000000000030
:1010C0000000000000000000000000000000000020
:1010D0000000000000000000000000000000000010
:1010E0000000000000000000000000008C2F0E94A3
:1010F0001C0383E290E00197F1F780915E029091EA
:101100005F02089690935F0280935E028115914082
:1011100089F480915C0290915D02019690935D024A
:1011200080935C0210925F0210925E028FE590E065
:101130000197F1F7CF9108952198299A0895CF92B8
:10114000DF92EF92FF920F931F93CF93DF936C0187
:101150007A018B01C0E0D0E0CE15DF0589F0D8011F
:101160006D918D01D601ED91FC910190F081E02D02
:10117000C6010995892B11F47E0102C02196ECCF9E
:10118000C701DF91CF911F910F91FF90EF90DF90FA
:10119000CF900895FC01538D448D252F30E0842F8E
:1011A00090E0821B930B541710F0CF96089501978F
:1011B0000895FC01918D828D981761F0828DDF0179
:1011C000A80FB11D5D968C91928D9F5F9F73928F3A
:1011D00090E008958FEF9FEF0895FC01918D828D2F
:1011E000981731F0828DE80FF11D858D90E00895FC
:1011F0008FEF9FEF0895FC01918D228D892F90E054
:10120000805C9F4F821B91098F739927089580E618
:1012100092E00E94FB0821E0892B09F420E0822F54
:101220000895FC01848DDF01A80FB11DA35ABF4FA3
:101230002C91848D90E001968F739927848FA689D5
:10124000B7892C93A089B1898C9180648C93938DFC
:10125000848D981306C00288F389E02D80818F7DEC
:1012600080830895EF92FF920F931F93CF93DF93A4
:10127000EC0181E0888F9B8D8C8D981305C0E889E7
:10128000F989808185FD24C0F62E0B8D10E00F5F5B
:101290001F4F0F731127E02E8C8DE8120CC00FB674
:1012A00007FCFACFE889F989808185FFF5CFCE0167
:1012B0000E941109F1CF8B8DFE01E80FF11DE35A59
:1012C000FF4FF0820B8FEA89FB898081806207C023
:1012D000EE89FF896083E889F98980818064808351
:1012E00081E090E0DF91CF911F910F91FF90EF90FF
:1012F0000895CF93DF93EC01888D8823C9F0EA89A4
:10130000FB89808185FD05C0A889B9898C9186FDFE
:101310000FC00FB607FCF5CF808185FFF2CFA889FB
:10132000B9898C9185FFEDCFCE010E941109E7CFDD
:10133000DF91CF91089580E090E0892B29F00E9401
:10134000070981110C94000008953FB7F89480912B
:101350001A0290911B02A0911C02B0911D0226B5A9
:10136000A89B05C02F3F19F00196A11DB11D3FBFDD
:10137000BA2FA92F982F8827820F911DA11DB11D6B
:10138000BC01CD0142E0660F771F881F991F4A9567
:10139000D1F7089508958F929F92AF92BF92EF92E6
:1013A000FF921F93CF93DF93DC012C9120FF3BC072
:1013B000EC0189819A817D01B7E0EB0EF11CDC0123
:1013C000ED91FC914B815C816D817E810280F38186
:1013D000E02D97010995182F811102C010E024C05B
:1013E000888181FD04C088818E7F88831DC0A9818A
:1013F000BA81ED91FC9111971C968D909D90AD90C6
:10140000BC901F974B815C816D817E81480D591D79
:101410006A1D7B1D0280F381E02D9701CD010995A6
:101420008111E1CFDBCF11E0812FDF91CF911F91AF
:10143000FF90EF90BF90AF909F908F900895EF92A4
:10144000FF920F931F93CF93DF938C017B01C0E03A
:10145000D0E0F701EC0FFD1F6491662361F0D80125
:10146000ED91FC910190F081E02DC8010995892B47
:1014700011F02196EECFCE01DF91CF911F910F9108
:10148000FF90EF9008951F920F920FB60F921124C4
:101490002F933F934F935F936F937F938F939F937C
:1014A000AF93BF93EF93FF9380E692E00E94110900
:1014B000FF91EF91BF91AF919F918F917F916F912C
:1014C0005F914F913F912F910F900FBE0F901F9002
:1014D00018951F920F920FB60F9211242F938F938E
:1014E0009F93EF93FF93E0917002F09171028081DE
:1014F000E0917602F091770282FD12C09081809196
:1015000079028F5F8F7320917A02821751F0E091F8
:101510007902F0E0E05AFD4F958F8093790201C087
:101520008081FF91EF919F918F912F910F900FBE2E
:101530000F901F901895833081F028F4813099F036
:101540008230A1F008958730A9F08830B9F0843056
:10155000D1F4809180008F7D03C0809180008F77CF
:1015600080938000089584B58F7702C084B58F7D05
:1015700084BD08958091B0008F7703C08091B00042
:101580008F7D8093B00008951F93CF93DF93282F12
:1015900030E0F901E253FA4F8491F901E654FA4F31
:1015A000D491F901EA55FA4FC491CC23C9F0162F12
:1015B00081110E949B0AEC2FF0E0EE0FFF1FEE5806
:1015C000FF4FA591B4918FB7F894111105C09C916C
:1015D000ED2FE095E92302C0EC91ED2BEC938FBF4A
:1015E000DF91CF911F910895CF93DF9390E0FC019D
:1015F000E654FA4F2491FC01EA55FA4F849188236E
:1016000061F190E0880F991FFC01E859FF4FC591E7
:10161000D491FC01EE58FF4FA591B491611109C01E
:101620009FB7F8948881209582238883EC912E239C
:101630000BC0623061F49FB7F8943881822F809597
:1016400083238883EC912E2B2C939FBF06C08FB7EA
:10165000F894E8812E2B28838FBFDF91CF910895D6
:101660008F929F92AF92BF92CF92DF92EF92FF92B2
:101670006B017C010E94A5094B015C01C114D104DE
:10168000E104F104F1F00E94A509DC01CB01881905
:101690009909AA09BB09883E9340A105B10570F3D9
:1016A00021E0C21AD108E108F10888EE880E83E033
:1016B000981EA11CB11CC114D104E104F10419F756
:1016C000DDCFFF90EF90DF90CF90BF90AF909F90D5
:1016D0008F9008952FB7F8946091160270911702B9
:1016E00080911802909119022FBF08951F920F92B6
:1016F0000FB60F9211242F933F938F939F93AF9325
:10170000BF938091160290911702A0911802B09198
:1017100019023091150223E0230F2D3720F4019692
:10172000A11DB11D05C026E8230F0296A11DB11D04
:10173000209315028093160290931702A09318022B
:10174000B093190280911A0290911B02A0911C0281
:10175000B0911D020196A11DB11D80931A029093B4
:101760001B02A0931C02B0931D02BF91AF919F91E9
:101770008F913F912F910F900FBE0F901F90189552
:101780001F920F920FB60F9211242F933F934F93F6
:101790005F936F937F938F939F93AF93BF93EF93D9
:1017A000FF93E0910201F09103010995FF91EF9100
:1017B000BF91AF919F918F917F916F915F914F9169
:1017C0003F912F910F900FBE0F901F9018951F9271
:1017D0000F920FB60F9211242F933F934F935F9365
:1017E0006F937F938F939F93AF93BF93EF93FF93E9
:1017F000E0910001F09101010995FF91EF91BF91F6
:10180000AF919F918F917F916F915F914F913F9198
:101810002F910F900FBE0F901F901895CF92DF92CF
:10182000EF92FF921F93CF93DF93EC016A017B014C
:10183000122F8B819C81AD81BE8184179507A607ED
:10184000B70709F1CE010E94CB09811103C080E0E6
:1018500090E01FC012FF06C01882CB82DC82ED82AE
:10186000FE8211C089819A81DC01ED91FC91019089
:10187000F081E02D9E01295F3F4FB701A601099538
:101880008111EACFE4CF13708881182B1883CE0121
:101890000796DF91CF911F91FF90EF90DF90CF904F
:1018A00008958F929F92AF92BF92CF92DF92EF9264
:1018B000FF920F931F936A017B0148015901FC01BC
:1018C0002581203251F544895589668977899701A8
:1018D0008601E7E03695279517950795EA95D1F7A4
:1018E000400F511F621F731F23E080960E940E0C51
:1018F000009711F480E02DC0E894C7F8DD24EE24B1
:10190000FF24CC0CDD1CCC0CDD1CFC01EC0DFD1D02
:1019100080829182A282B3821BC0203159F7FC01E0
:1019200044895589668977894D0D511D611D711D49
:1019300023E080960E940E0C0097E1F2DD24EE2455
:10194000FF24CC0CDD1CFC01EC0DFD1D918280827E
:1019500081E01F910F91FF90EF90DF90CF90BF90AB
:10196000AF909F908F900895CF92DF92EF92FF9269
:101970000F931F93CF93DF93EC016A017B018901E1
:101980008D81803251F58C899D89AE89BF89E7E0D0
:101990007695679557954795EA95D1F7480F591F62
:1019A0006A1F7B1F22E0CE0180960E940E0C0097DA
:1019B00011F48FEF40C0E894C7F8DD24EE24FF2433
:1019C000CC0CDD1CCC0CDD1CFC01EC0DFD1D808164
:1019D0009181A281B381BF701DC0803151F74C89C4
:1019E0005D896E897F894D0D511D611D711D22E03C
:1019F000CE0180960E940E0C0097D9F2DD24EE24D1
:101A0000FF24CC0CDD1CFC01EC0DFD1D80819181BF
:101A1000A0E0B0E0488D598D6A8D7B8D481759073D
:101A20006A077B0738F0F80180839183A283B38330
:101A300081E001C080E0DF91CF911F910F91FF9075
:101A4000EF90DF90CF9008956115710579F0FB015B
:101A500001900020E9F73197AF01461B570BDC01DD
:101A6000ED91FC910280F381E02D099480E090E0FB
:101A70000895FC01AC01455F5F4F80E090E8899FCD
:101A800090011124982F9695922B2191892F820FE6
:101A9000E417F50799F70895CF93DF93FC012081B0
:101AA000211102C081E046C0EC01828187FF3AC06B
:101AB00044895589668977898681978121E0809656
:101AC0000E940E0C009729F489818160898380E04F
:101AD00031C0EC81FD81EF70FF2725E0EE0FFF1F85
:101AE0002A95E1F7DC01AE0FBF1F2C91253E61F373
:101AF000288123FF0AC0488D598D6A8D7B8D5C96A5
:101B00004D935D936D937C935F974C8D5D8D6E8D42
:101B10007F8DE80FF91F538F428F758B648B8A81FD
:101B20008F778A838E819F8180960E94CB0988233C
:101B300059F2B8CFDF91CF9108954F925F926F9293
:101B40007F928F929F92AF92BF92CF92DF92EF924D
:101B5000FF920F931F93CF93DF93EC014A015B0138
:101B60004C845D846E847F84A881AA2309F48CC090
:101B7000411551056105710529F41C861D861E86D7
:101B80001F867CC0A3FF0BC0488D598D6A8D7B8D4D
:101B9000481559056A057B0508F476C014C0A5FFF1
:101BA00012C0EE81FF818681978125E0880F991F01
:101BB0002A95E1F7A0E0B0E084179507A607B707DC
:101BC00008F462C05BC0488959896A897B89EE81C3
:101BD000FF81848190E009968A019B0101501109DF
:101BE00021093109082E04C03695279517950795C8
:101BF0000A94D2F775016401B1E0CB1AD108E1086B
:101C0000F10804C0F694E794D794C7948A95D2F764
:101C1000C016D106E206F30620F0452B462B472BD3
:101C200081F4A6FF05C0848D958DA68DB78D04C067
:101C30008C8D9D8DAE8DBF8D8C879D87AE87BF8728
:101C400004C0C01AD10AE20AF30A8E01045F1F4FD2
:101C5000C114D104E104F10489F04C855D856E85E1
:101C60007F8598018E819F810E94B40C91E0C91AF2
:101C7000D108E108F10818165CF306C0888A998A31
:101C8000AA8ABB8A81E005C04C865D866E867F8607
:101C900080E0DF91CF911F910F91FF90EF90DF9047
:101CA000CF90BF90AF909F908F907F906F905F90FC
:101CB0004F9008952F923F924F925F926F927F9232
:101CC0008F929F92AF92BF92CF92DF92EF92FF924C
:101CD0000F931F93CF93DF9300D000D0CDB7DEB723
:101CE0009C838B834B018A01DC018C91882309F151
:101CF00012969C9190FF1DC027C0D380D422A114BE
:101D0000B10409F09AC0D11098C0892B8A2B8B2B73
:101D100009F47CC0AB81BC811C964D915D916D91A5
:101D20007C911F9729813A81C2010E94B40C87FFE0
:101D30007CC0AB81BC8111968C9111978260119609
:101D40008C938FEF9FEFF1C083FF17C0EB81FC8175
:101D5000808D918DA28DB38D40895189628973895F
:101D6000841B950BA60BB70BA80160E070E0481729
:101D700059076A077B07D0F018C085FF17C0AB81F1
:101D8000BC811696ED91FC9117978681978155E05D
:101D9000880F991F5A95E1F750962D913C915197D4
:101DA000821B930B8017910708F48C017801EB815B
:101DB000FC813C96FA83E983612C42E0742EE114A5
:101DC000F10409F476C0EB81FC8180899189A289B4
:101DD000B3895C01F1E0BF22EB81FC812081468068
:101DE0005780AC01BD0139E07695679557954795C9
:101DF0003A95D1F7F20125FF80CF848D958DA68D80
:101E0000B78D480F591F6A1F7B1F3BC026FD02C0BC
:101E1000EB81FC81848D958DA68DB78DEB81FC8146
:101E200084879587A687B78708C0811106C0EB8194
:101E3000FC8180818077E9F57CCFAB81BC811696EF
:101E4000ED91FC9117971C964D915D916D917C9150
:101E50001F974250510961097109048004C0440F61
:101E6000551F661F771F0A94D2F780899189A2892E
:101E7000B389480F591F6A1F7B1F4D0D511D611DEE
:101E8000711DEB81FC8186819781A114B104B1F5AC
:101E9000E114F2E0FF0690F1DC0193962D903D9065
:101EA0004D905C909697421553056405750529F48D
:101EB00025C0C8018E199F0938C0DC01ED91FC9145
:101EC0000190F081E02D94010995882309F431CF28
:101ED000C12C82E0D82E8C0C9D1CEB81FC8180896A
:101EE0009189A289B3898C0D9D1DA11DB11D808B87
:101EF000918BA28BB38BEC18FD0861CF93012A194B
:101F00003B0967012E153F0508F4690120E0809622
:101F10000E940E0C009709F40CCFBC016A0D7B1DCA
:101F2000A601C4010E94D02DD6CF0F900F900F9024
:101F30000F90DF91CF911F910F91FF90EF90DF9065
:101F4000CF90BF90AF909F908F907F906F905F9059
:101F50004F903F902F900895FF920F931F93CF9330
:101F6000DF931F92CDB7DEB78C01FC018089918988
:101F7000A289B3899C01AD0175E0569547953795C7
:101F800027957A95D1F7F22FFF70FF2E11F061118E
:101F900016C041E050E0BE016F5F7F4FC8010E9454
:101FA0005A0E813019F080E090E01AC0F801808963
:101FB0009189A289B3894F96A11DB11D04C0809655
:101FC000A11DB11DF801808B918BA28BB38BF80101
:101FD000868197818796F0E2FF9E800D911D1124E6
:101FE0000F90DF91CF911F910F91FF900895FC0109
:101FF0008081811114C080E2DF01982F1D929A9593
:10200000E9F777836683DB0115969C91903119F08F
:10201000903229F480E4808381E08283089580E017
:102020000895CF93DF93EC010E944C0D1882DF914D
:10203000CF9108953F924F925F926F927F928F92CD
:102040009F92AF92BF92CF92DF92EF92FF920F9347
:102050001F93CF93DF93CDB7DEB728970FB6F894D1
:10206000DEBF0FBECDBF4C01DC0112968C911297E2
:10207000806812968C9312971C964D905D906D908F
:102080007C901F971696AD90BC9017974114510401
:102090006104710461F4D50118968D919D910D90A4
:1020A000BC91A02D8D839E83AF83B88704C04D82E1
:1020B0005E826F827886CD80DE80EF80F884BFEF0D
:1020C000CB1ADB0AEB0AFB0AF501808D918DA28DFC
:1020D000B38D8C159D05AE05BF0528F482E0C82E92
:1020E000D12CE12CF12C9E012F5F3F4FB701A601AF
:1020F000C5010E94B40C87FD20C0882341F089816E
:102100009A81AB81BC81892B8A2B8B2B51F08D81DD
:102110009E81AF81B885C816D906EA06FB0679F616
:102120000CC00FEF1FEF2FEF3FE0B701A601C50175
:102130000E94510C382E811102C0312C1BC0411459
:1021400051046104710451F097018601B301A201A9
:10215000C5010E94510C811108C0EFCFD50118961E
:10216000CD92DD92ED92FC921B97F401C486D58648
:10217000E686F786832D28960FB6F894DEBF0FBE4D
:10218000CDBFDF91CF911F910F91FF90EF90DF9026
:10219000CF90BF90AF909F908F907F906F905F9007
:1021A0004F903F9008952F923F924F925F926F927F
:1021B0007F928F929F92AF92BF92CF92DF92EF92D7
:1021C000FF920F931F93CF93DF93EC015B014A01C2
:1021D000888183FF0EC08A8181FF0BC082FF0FC000
:1021E000488D598D6A8D7B8DCE010E949D0D811188
:1021F00006C08981816089838FEF9FEF0BC1A401A5
:1022000060E070E088899989AA89BB89809590955A
:10221000A095B09584179507A607B70750F36401FA
:102220001E018CE0280E311C088919892A893B89F6
:10223000C114D10409F4D3C08E819F81B901A801D2
:1022400029E076956795579547952A95D1F7DC0152
:102250001396FC90F4221170F11034C00115110591
:1022600089F54C855D856E857F8541155105610534
:10227000710569F091010E94B40C87FDBACF8111FC
:1022800021C0CE010E941A1081111CC0B2CF8C8DCA
:102290009D8DAE8DBF8D0097A105B10579F4CE015E
:1022A0000E941A10882309F4A4CF8C859D85AE85E1
:1022B000BF858C8F9D8FAE8FBF8F04C08C879D870D
:1022C000AE87BF87EE81FF814C855D856E857F85FA
:1022D0004250510961097109048004C0440F551F1F
:1022E000661F771F0A94D2F780899189A289B389E2
:1022F000480F591F6A1F7B1F4F0D511D611D711D16
:102300000115110521F4C114B2E0DB06B0F580E03F
:1023100092E0801B910B76018C159D0508F47C01E1
:102320000115110579F4488859886A887B88888D59
:10233000998DAA8DBB8D481659066A067B0610F04A
:1023400025E001C021E0CF0180960E940E0C00978D
:1023500009F44FCFA701B501800F911F0E94D02D26
:102360000E0D1F1D0115124049F58E819F8180962B
:102370000E94CB09811122C03CCF83A194A1A5A1C9
:10238000B6A184179507A607B70741F410A28FEFEF
:102390009FEFDC0183A394A3A5A3B6A38E819F81A5
:1023A000DC01ED91FC910280F381E02D950109950E
:1023B000882309F41ECFE12C82E0F82E88899989C0
:1023C000AA89BB898E0D9F1DA11DB11D888B998B7C
:1023D000AA8BBB8BAE0CBF1CCE18DF0825CF888D17
:1023E000998DAA8DBB8D80179107A207B30738F48A
:1023F000088F198F2A8F3B8F8A8180688A838A8110
:1024000083FD02C0C40106C0CE010E944C0D8111A3
:10241000F9CFEFCEDF91CF911F910F91FF90EF9009
:10242000DF90CF90BF90AF909F908F907F906F90F4
:102430005F904F903F902F900895DC01ED91FC91BB
:102440000084F185E02D0994DC01ED91FC9104807C
:10245000F581E02D09940E94B62D4F925F926F9204
:102460007F92EF92FF920F931F93CF93DF93CDB79D
:10247000DEB7A1970FB6F894DEBF0FBECDBF7C01CB
:10248000FA01CB0119A2223008F42AE08E010F5D77
:102490001F4F422E512C612C712CBF01A3019201C0
:1024A0000E946F2DF901CA01015011096A3014F41C
:1024B000605D01C0695CD8016C93232B242B252B14
:1024C00061F7B801C7010E94240DA1960FB6F894D8
:1024D000DEBF0FBECDBFDF91CF911F910F91FF9057
:1024E000EF907F906F905F904F9008950F931F93A0
:1024F000CF93DF93EC010E941F0A8C0166E971E023
:10250000CE010E94240D800F911FDF91CF911F916A
:102510000F910895AF92BF92CF92DF92EF92FF9208
:102520000F931F93CF93DF9300D000D0CDB7DEB7CA
:10253000FC0180910303811160C08081807709F4E0
:102540005CC080899189A289B3898F719927AA2754
:10255000BB27892B8A2B8B2B09F04FC05F0110E022
:1025600000E0F501C088D188E288F38860E0C50109
:102570000E94AC0F009709F440C0FC012081222387
:10258000E1F12E3211F410E0ECCF253EE1F333857A
:1025900033FD16C0B701A60125E0769567955795DE
:1025A00047952A95D1F71123A1F049835A836B836C
:1025B0007C830E94390D49815A8108131EC009C0CD
:1025C0003F3009F726FFCDCF122F1F71FC01058583
:1025D000C8CF212FB50183E093E00F900F900F90AB
:1025E0000F90DF91CF911F910F91FF90EF90DF90AF
:1025F000CF90BF90AF900C94D51980E00F900F90C2
:102600000F900F90DF91CF911F910F91FF90EF905E
:10261000DF90CF90BF90AF9008952F923F924F924E
:102620005F926F927F928F929F92AF92BF92CF9262
:10263000DF92EF92FF920F931F93CF93DF93CDB76B
:10264000DEB7E3970FB6F894DEBF0FBECDBF7C01B7
:102650008A0119821A82FC01808181116BC1FB0100
:102660008081807709F466C1FA0180818F32B9F4E4
:102670008F0181918F32E1F3FB01668177818111B6
:1026800004C0C7010E94F70F5AC1CE0101960E94F3
:10269000F70F882309F44EC1BE016F5F7F4F6E01B3
:1026A000F2E3CF0ED11CD8010F5F1F4F8C91803207
:1026B000D1F3BDA3ACA3FD019F012A1B3B0B81916C
:1026C0008823D9F08F32C9F08C3509F433C1982FA3
:1026D000977F923209F42EC18A3309F42BC1982FC7
:1026E0009F7B9C3309F426C192EC980F923008F43A
:1026F00021C180528F3500F31DC1AD01420F531F20
:10270000CA018C01FC016190CF01F0E26F16C9F3A0
:102710002FE26216B1F39A012A1B3B0B4A175B07A3
:1027200041F0FA018291AF018E32A9F3803299F320
:1027300003C01BAA1AAA07C03BAB2AAB2F3F310527
:1027400011F00CF0F7C08AA99BA99BA38AA3CE0124
:102750008796FC0120E22193CF01EC15FD05C9F716
:10276000CD019C012A1B3B0BFC014191CF014E3254
:10277000C1F34032B1F381E02115310509F080E069
:102780004AA95BA94150510938F05D01A40EB51E5C
:10279000F50190819E32B1F77EA097E0892E312C11
:1027A000512C912CE8E04E2EEAA9FBA92E173F07E9
:1027B0000CF07FC05D01A20EB31EF5019081903236
:1027C00009F465C09E3229F44217530709F05FC02F
:1027D00004C09232E1F09C37D1F0F6EDBF2EB90E75
:1027E000F5E0FB1510F09D3291F4E6ECBE2EB90E2B
:1027F000E5E0EB1560F4F5EABF2EB90EF2E0FB154B
:1028000030F4EFEDBE2EB90EEDE5EB1520F42417F4
:10281000350781F440C024173507E9F1831440F1EE
:10282000B92EFFE9AF2EA90EF9E1FA1548F0905242
:1028300094280CC08314E0F080E09FE5EFE5BE2E05
:10284000EFEBBE0EF9E1FB1508F054282224239487
:10285000230CE7E2AE2EB12CAC0EBD1EA30CB11CB6
:10286000F5019083F6E0F215A0F0722C322C1EC018
:102870008AE0881609F460C0421753070CF45CC064
:102880009A01FAE08F2E88E0382E90E1492E80E000
:102890000DC0322C0BC0FAE08F1609F44DC09A011E
:1028A000FAE08F2E98E0392EE0E14E2E2F5F3F4F59
:1028B0007BCF7EA29FA19032E9F1882339F0592085
:1028C00011F4892D01C082E089A314C081E089A39D
:1028D0008EA190E0E7E2F0E0EC0FFD1FE80FF91F9A
:1028E0002EE72083E8E2F0E0EC0FFD1FE80FF91F70
:1028F00021E320836620B9F0AE014F5D5F4FC70131
:102900000E94581A8823B1F0F701DE01119680E287
:1029100001900D928A95E1F7C7010E941110BE0146
:102920006F5F7F4FC0CEAE014F5D5F4FC7010E940A
:10293000581A05C080E003C07EA280E0BBCFE396BA
:102940000FB6F894DEBF0FBECDBFDF91CF911F91C0
:102950000F91FF90EF90DF90CF90BF90AF909F903E
:102960008F907F906F905F904F903F902F90089541
:102970000F931F93CF93DF93CDB7DEB7A0970FB61A
:10298000F894DEBF0FBECDBFAB0119821A82FB01E6
:1029900020812F3231F42181211103C00E94C219FC
:1029A00017C08C01095D1D4FB801CE0101960E9430
:1029B0000D13882369F09981907749F090E2FE0128
:1029C0003196D80101900D929A95E1F701C080E00F
:1029D000A0960FB6F894DEBF0FBECDBFDF91CF91AA
:1029E0001F910F910895CF93DF93BC0180E692E091
:1029F0000E94240DEC0166E971E080E692E00E94FD
:102A0000240D8C0F9D1FDF91CF9108951092020429
:102A10001092010410920404109203041092900486
:102A200010928F0410928E0410928D0410929404D0
:102A3000109293048091FD029091FE020E94C219AF
:102A4000811113C08FEC91E00E94F3148091FD027C
:102A50009091FE02FC01E65BFD4F2081222321F0D4
:102A600060E672E00E943019FFCF0895CF93DF93A4
:102A700010920204109201041092040410920304B4
:102A8000C091FD02D091FE02C95DDD4F40E050E0F3
:102A9000BA01CE010E949D0D8091EB039091EC0351
:102AA00018161906DCF48091010490910204019635
:102AB000909302048093010411C08091030381FD6F
:102AC00009C0809101049091020401969093020440
:102AD0008093010483E093E00E941110CE010E94D4
:102AE0008A128111EACF40E050E0BA01CE010E9483
:102AF0009D0D64EC71E080E692E00E941F0A409117
:102B000001045091020460E070E02AE080E692E067
:102B10000E942D1266E971E080E692E0DF91CF918C
:102B20000C94240DAF92BF92DF92EF92FF920F931D
:102B30001F93CF93DF93CDB7DEB7AE970FB6F89460
:102B4000DEBF0FBECDBF8091FD029091FE021092BC
:102B50000C0410920B044091EB035091EC03209174
:102B60000304309104041416150624F421153105CC
:102B700009F457C14091010450910204241735070C
:102B800008F040C1895D9D4F0E948A12882309F494
:102B900030C18091030381FD19C119821A8290917D
:102BA0000603911166C0882309F4FAC0807621F0EB
:102BB0008FE289A31AA2EDC0409117035091180328
:102BC0006091190370911A038091090390910A038F
:102BD00020E080960E940E0C8C01892B09F4E0C045
:102BE00020910703309108032F70332795E0220FBF
:102BF000331F9A95E1F740E050E088E090E0D8017B
:102C0000A20FB31F5D016CE0A60EB11C6EE2F62EA2
:102C1000FA01E20FF31FE00FF11F60816032F9F05B
:102C20004830510551F461E270E06C0F7D1F690F6F
:102C3000711DDB01FC929F5F80E160817FEB760F6D
:102C40007A3128F4F5017081782309F0605EE1E2C1
:102C5000F0E0EC0FFD1FE90FF11D60839F5F4F5FF8
:102C60005F4F4B305105A1F6FE01E90FF11D11A296
:102C700090C080910B0390910C03A0910D03B09133
:102C80000E036091090370910A038E010F5F1F4FBD
:102C90000097A105B10539F4C8010E94F70F8823F8
:102CA00009F47EC00FC020E2F80111922A95E9F7DD
:102CB00020E1298321E02B8378876F838D8F9E8F7E
:102CC000AF8FB8A3DD24D394809106038D1508F44B
:102CD00067C0ED2CF12C40910703509108034E1969
:102CE0005F0960E070E085E0440F551F661F771FA5
:102CF0008A95D1F7C8010E949D0D882309F450C020
:102D000060E0C8010E94AC0F5C01009709F448C064
:102D1000DC011B968C911B978F3009F041C08C9180
:102D20008F7190E0E816F906D9F5750120E025309D
:102D300020F4F701618172810BC02B3030F4D70190
:102D400014966D917C91159703C0F7016681778188
:102D50006115710531F4D5018C9186FD21C0D394A4
:102D6000B3CF6F37710510F06FE370E0E0910704A7
:102D7000F09108040190F081E02D87E094E02EA707
:102D800009952EA52F5FB2E0EB0EF11C2D3079F6E0
:102D9000E2CFBE016F5D7F4F87E094E00E94240D7B
:102DA000809103049091040401969093040480930D
:102DB0000304809103038295817080938D041092A7
:102DC0008E0410929204109291040CC021E030E025
:102DD00030939204209391048295817080938D04A6
:102DE00010928E0483E093E00E94111081E090E045
:102DF00032C081E090E09093900480938F046AEA5F
:102E000071E008C081E090E09093900480938F047B
:102E100061EA71E080E692E00E94761280E090E044
:102E20001AC06EED71E08DE094E00E94E22D82E028
:102E300090E090930C0480930B0481E090E09093D9
:102E40008E0480938D0410929204109291049093BA
:102E5000040480930304AE960FB6F894DEBF0FBE51
:102E6000CDBFDF91CF911F910F91FF90EF90DF9039
:102E7000BF90AF900895FC01248135812F37310533
:102E800064F4E20FF31F66832F5F3F4FFC01E20FF4
:102E9000F31F1682FC013583248381E090E00895BE
:102EA00080E00895EF92FF920F931F93CF93DF93EB
:102EB0007C01EB018B01040F151FC017D10751F0E6
:102EC0006991D701ED91FC910084F185E02DC70156
:102ED0000995F3CFDF91CF911F910F91FF90EF9064
:102EE0000895862F90E09C01220F232F221F330B81
:102EF000232B11F02C9A01C02C982D9A0000000071
:102F00002D9886FF02C02C9A01C02C982D9A0000A3
:102F100000002D9885FF02C02C9A01C02C982D9A94
:102F2000000000002D9884FF02C02C9A01C02C984C
:102F30002D9A000000002D9883FF02C02C9A01C03A
:102F40002C982D9A000000002D9882FF02C02C9A28
:102F500001C02C982D9A000000002D9881FF02C01E
:102F60002C9A01C02C982D9A000000002D9860FF2B
:102F700002C02C9A01C02C982D9A000000002D98B8
:102F80000895EF92FF920F931F93CF93DF937C01ED
:102F9000EB018B01040F151FC017D10751F0D701AA
:102FA000ED91FC910480F581E02DC701099589938D
:102FB000F3CF80E0DF91CF911F910F91FF90EF90C1
:102FC0000895000000002D9A1B9B02C080E801C0FC
:102FD00080E02D98000000002D9A1B9980642D98A8
:102FE000000000002D9A1B9980622D9800000000BF
:102FF0002D9A1B9980612D98000000002D9A1B9935
:1030000088602D98000000002D9A1B9984602D98EF
:10301000000000002D9A1B9982602D98000000008E
:103020002D9A1B9981602D980895089523982B98C7
:10303000249A2C9A259A2D980895CF93DF93EC012A
:1030400061E08A810E94C40A6FEF88819981DF91D3
:10305000CF910C941D12CF92DF92EF92FF920F93BB
:103060001F93CF93DF93CDB7DEB72A970FB6F894AF
:10307000DEBF0FBECDBF7C01C62E2F8338874987A8
:103080005A87DC018D919C91DC01ED91FC910280CD
:10309000F381E02DD70114966C91099560E0F7015A
:1030A00082810E94C40A0E946A0B8B01F701808111
:1030B00091810E9424128F3F39F00E946A0B601B9D
:1030C000710B6835724090F3FE01319686E0DF01A6
:1030D0001D928A95E9F78C2D806489838A858A837D
:1030E00089858B8388858C838F818D838F0190E088
:1030F00059E08E2F45E04E0F319128E0990F632F54
:10310000692767FD9527330F2150C1F74E13F4CF80
:10311000990F91609E8396E0D92ED80ED8016D91BB
:103120008D01F701808191810E941D12D012F6CF8E
:10313000FCE0CF1205C0D7018D919C910E94241212
:1031400010E0F701808191810E942412D701159629
:103150008C9387FF04C01F3F11F01F5FF2CF2A96A8
:103160000FB6F894DEBF0FBECDBFDF91CF911F9198
:103170000F91FF90EF90DF90CF900895DC01680FE2
:10318000791F80E090E0A617B70779F02D91E92F1D
:10319000FF27E227EE0FFF1FEE50FE4F25913491DF
:1031A000982F882782279327EECF0895CF92DF921A
:1031B000EF92FF920F931F93CF93DF93EC017B016C
:1031C0006A010E946A0B8B01888199810E942412F6
:1031D0008D838F3F49F40E946A0B601B710B6D3227
:1031E000714090F381E129C08E3F11F08FE025C03E
:1031F00088819981DC01ED91FC910680F781E02DB9
:10320000A601B70109958D83882311F08CE115C0C3
:10321000888199810E942412082F888199810E94B7
:103220002412182FB601C7010E94BE18212F30E0CA
:10323000302B2817390739F08BE18B83CE010E94A0
:103240001D1880E004C0CE010E941D1881E0DF91AE
:10325000CF911F910F91FF90EF90DF90CF90089545
:103260000F931F93CF93DF938C01EB0161EE71E01D
:10327000CE010E941F0AF801E65BFD4F408150E03D
:1032800060E070E020E1CE010E942D126DED71E052
:10329000CE010E941F0AF801E45BFD4F408150E01F
:1032A00060E070E020E1CE010E942D1266E971E03D
:1032B000CE01DF91CF911F910F910C94240DDC0171
:1032C0000D900020E9F7FB0101900020E9F731970C
:1032D000E61BF70B9F01215031091197E60FF71FED
:1032E00080E090E02817390734F05E914291541342
:1032F00004C00196F7CF81E0089580E00895109210
:103300005F0210925E0210925D0210925C021092B7
:103310005B02089599B1282F207F9F70922B9BB953
:1033200096B18F70907F892B88B90E942F0383E21A
:1033300090E00197F1F70E942C0387E291E001975A
:10334000F1F7089563ED71E080E692E00E94761255
:103350002998219A8BE891E00197F1F70C949C0849
:10336000811102C081E007C0813011F484E003C004
:10337000823019F488E08093070108950C944D2D54
:103380000C94452D0F931F93CF93DF938C01EC0189
:10339000C95DDD4FCE010E941110B801CE01DF9151
:1033A000CF911F910F910C94F70FCF92DF92EF9274
:1033B000FF920F931F93CF93DF93DC0180E2ED0127
:1033C00019928A95E9F7EB01EE81FF811796FC933C
:1033D000EE93169715965C934E931497CC8CDD8CD8
:1033E000EE8CFF8C1896CD92DD92ED92FC921B979D
:1033F0004F705527EF01A79635E0440F551F3A95BA
:10340000E1F7BE01640F751FEB018B8583FD45C09D
:10341000CF01840F951FEC019AA997719C93EB0142
:103420008B85887111F498609C9313962C93139755
:1034300081E012968C93129703A114A125A136A1C5
:1034400054960D931D932D933C935797E40FF51FBE
:1034500043AD54AD60E070E0BA0155274427EF0159
:10346000CF5BDF4F0881198120E030E0402B512BEA
:10347000622B732B5C964D935D936D937C935F975A
:10348000ED5BFF4F408151816281738158964D936E
:103490005D936D937C935B9702C01C9280E0DF91FB
:1034A000CF911F910F91FF90EF90DF90CF900895F3
:1034B0002F923F924F925F926F927F928F929F9244
:1034C000AF92BF92CF92DF92EF92FF920F931F9332
:1034D000CF93DF9300D01F92CDB7DEB75C018B0195
:1034E000FA01C180D280DB019C91907709F4EEC093
:1034F000D5018C918111EAC09081937009F4D7C0F5
:10350000C6010C966DE070E00E945B2D99249394A7
:10351000960E7F0140E050E0BA01C8010E949D0D67
:1035200019821B82812C1A821701B6E02B0E311CE6
:10353000F801408851886288738861E0C8010E9460
:10354000AC0F009709F4C2C0DC012C91253E39F084
:10355000222309F4B8C0891408F4ACC008C0891447
:1035600040F48394222309F4B1C0253E11F02E3299
:1035700011F41A82DDCFFC0133853F3009F059C0C8
:103580003A81311109C026FFD3CF2F712B832585B6
:1035900029833B813A8309C03B8131503B8323130C
:1035A000E8CF258539813213E4CF2B81422F50E0BB
:1035B000415051096DE0649F9001659F300D1124C9
:1035C0002C153D05B0F6FC0170E0753018F48181D2
:1035D000928107C07B3018F48481958102C0868176
:1035E00097812C153D0521F4892B09F4A1CFC1CF7A
:1035F0008F3F910511F008F0BCCF4FEB480F4A31D7
:1036000010F0682F02C060E2680FA9014F5F5F4FA2
:10361000D70113968D919C911497DC01A20FB31FD3
:103620008C919FEB980F9A3108F4805E6813A1CFBC
:1036300043C033FD9ECF2A81222351F03B8131309C
:1036400009F044C00E94390D298182133FC00CC08B
:103650004BE050E0B1010E94C32D892B09F068CFE7
:10366000D7018C9180FD64CFB301A20185E07695EE
:103670006795579547958A95D1F72A81B801C50175
:103680000F900F900F90DF91CF911F910F91FF90AE
:10369000EF90DF90CF90BF90AF909F908F907F90F2
:1036A0006F905F904F903F902F900C94D519992474
:1036B00093942FCF812C5BCF7F5F32967D3009F4BE
:1036C00037CF9A0182CF891408F44BCF80E00F9056
:1036D0000F900F90DF91CF911F910F91FF90EF907E
:1036E000DF90CF90BF90AF909F908F907F906F9022
:1036F0005F904F903F902F900895FC01848583FF49
:103700000DC084A195A1A6A1B7A1448D558D668D4C
:10371000778D841B950BA60BB70B03C080E090E060
:10372000DC01811520E89207A105B10520F08FEF9B
:103730009FE7A0E0B0E008950F931F9380914702A8
:10374000882309F459C00E946A0B00913207109136
:1037500033072091340730913507DC01CB01801B02
:10376000910BA20BB30B8093220290932302A093A0
:103770002402B09325020E946A0B60933207709373
:1037800033078093340790933507809120029091FE
:10379000210208970CF057C0E0912002F09121021D
:1037A0008091220290912302A0912402B0912502DF
:1037B000EE0FFF1FEE0FFF1FEA5DFD4F8083918329
:1037C000A283B3838091200290912102019690936D
:1037D000210280932002809120029091210208977B
:1037E00091F5E8988AEC99E09093010180930001AB
:1037F00081E08093460227C010922102109220029D
:1038000080E890E090930601809305010E946A0B86
:1038100060932E0770932F078093300790933107A2
:1038200080912E0790912F07A0913007B09131071A
:103830008093320790933307A0933407B0933507F2
:1038400081E0809347021F910F910895CF92DF92FC
:10385000EF92FF920F931F93CF93DF938C01790127
:10386000EC01C95BDD4FFC01E35BFD4F80818330E0
:1038700039F089E0440F551F661F771F8A95D1F7ED
:103880009A01AB0168E1CE010E942B18882331F028
:10389000F801E65BFD4F86E0808332C060E072E0B5
:1038A000C7010E94BE18D82EC92E6EEF888199815B
:1038B0000E941D1288819981DC01ED91FC910284A6
:1038C000F385E02D40E052E0B70109956C2D888129
:1038D00099810E941D126D2D888199810E941D126F
:1038E000888199810E9424128D838F71853069F0BF
:1038F000F801E65BFD4F83E18083CE010E941D1835
:10390000CE010E941D1880E004C0CE010E941D1847
:1039100081E0DF91CF911F910F91FF90EF90DF90A9
:10392000CF900895EF92FF920F931F93CF93DF9361
:10393000EC0179018C01095B1D4FFC01E35BFD4F3C
:103940008081833039F089E0440F551F661F771F4F
:103950008A95D1F79A01AB0161E1C8010E942B1849
:1039600081110CC040E052E0B701C801DF91CF9156
:103970001F910F91FF90EF900C94D618C65BDD4F0E
:1039800084E08883C8010E941D1880E0DF91CF91F8
:103990001F910F91FF90EF9008950C960C94D31007
:1039A000CF93DF931F92CDB7DEB7698341E050E03C
:1039B000BE016F5F7F4F04960E94D3100F90DF917E
:1039C000CF910895CF93DF931F92CDB7DEB7698370
:1039D00041E050E0BE016F5F7F4F0C960E94D31014
:1039E0000F90DF91CF91089504960C94D3100C960C
:1039F0000C944C0D04960C944C0D8F929F92AF92A8
:103A0000BF92CF92DF92EF92FF920F931F93CF93CB
:103A1000DF931F92CDB7DEB7F82ED62E862F90E01B
:103A2000982F88274C018F0C911C092C000CAA0898
:103A3000BB08800E911EA21EB31E8FEF881A980A33
:103A4000A80AB80A8F2D49830E948A198D2D0E94D9
:103A50008A194981842F0E948A198F2D0E948A1900
:103A60008D2D0E948A19C501B40120E031E040E0AB
:103A700050E00E94912D862F29830E948A19298166
:103A8000822F0E948A198E2D0E948A198C2D0E94E5
:103A90008A1980E00F90DF91CF911F910F91FF90D5
:103AA000EF90DF90CF90BF90AF909F908F900C944D
:103AB0008A19CF93DF93C2EFD3E0FE0184910E9475
:103AC00032032196F4E0CB36DF07B9F7C7E8D0E040
:103AD00080E20E9432032197D9F7DF91CF910C94B5
:103AE0007F19E8988AEC99E0909301018093000196
:103AF00010922202109223021092240210922502A8
:103B00001092470210924602109221021092200257
:103B100008958CE99BE19093010180930001E9E60F
:103B2000F0E080818C7F82608083E89A109222028C
:103B30001092230210922402109225021092470242
:103B40001092460210922102109220020895CF9303
:103B5000DF931F92CDB7DEB741E050E0BE016F5F4B
:103B60007F4F0E945A0E019719F4898190E002C09C
:103B70008FEF9FEF0F90DF91CF9108950C960C94EB
:103B8000A71D8F929F92AF92BF92CF92DF92EF923A
:103B9000FF92CF93DF93EC018C8C9D8CAE8CBF8C0D
:103BA000C88CD98CEA8CFB8C0C960E94A71D97FDC3
:103BB00008C08C8E9D8EAE8EBF8EC88ED98EEA8E3A
:103BC000FB8EDF91CF91FF90EF90DF90CF90BF9071
:103BD000AF909F908F90089561E083E00C94C40AA9
:103BE00060E083E00C94C40A2F923F924F925F9260
:103BF0006F927F928F929F92AF92BF92CF92DF92FD
:103C0000EF92FF920F931F93CF93DF93CDB7DEB761
:103C1000CA55D1090FB6F894DEBF0FBECDBF1D86C1
:103C20001E861C821B8248EE842E43E0942EA12C1B
:103C3000B12C8D829E82AF82B88600E711E01A8394
:103C40000983109236070E94711D0E94061585ECAB
:103C500090E09093EA038093E9031092EC031092B2
:103C6000EB030E9436151DA61EA641EE51E06CEB3B
:103C700076E0CE018D960E940D13882391F119AE46
:103C80001AAE18AA1FA689AA9AAAABAABCAA1EA7EE
:103C90000DA741EE51E06CEB76E0CE01C9960E9493
:103CA0000D1380E2FE01F996DE011D9601900D9242
:103CB0008A95E1F78FA598A99C838B8389A99AA9F6
:103CC000ABA9BCA98D839E83AF83B8878DA99EA91C
:103CD000AFA9B8AD89879A87AB87BC878D858111DD
:103CE00042C1F12C8FED682E712C0E94F01D0E94B4
:103CF000A2196CE271E080E090E00E94300BF110BC
:103D00000AC0EBE6F4E024916A962FAF6A97ECE6DE
:103D1000F4E084910BC0CE010D960E94A71D6A9617
:103D20008FAF6A97CE010D960E94A71D6B968FAF3D
:103D30006B97C301072C000CAA0BBB0B1C012D01B8
:103D40002EE8220E22E0321E411C511C222079F066
:103D5000812C912C54019394C201B101A5019401CD
:103D60000E94912D861A970AA80AB90A03C0812CCD
:103D7000912C5401DD24D39481149104A104B10445
:103D800009F4D12CC0900401C201B10120E031E05E
:103D900040E050E00E94912D4D2D420FE12C920108
:103DA00081016B966FAD6B976A968FAD6A970E9493
:103DB000FD1C0E947F190E94591DF89402E010E03A
:103DC000F1101EC0061517054CF4F801E559FB4F1C
:103DD00084910E9474030F5F1F4FF4CF2091010460
:103DE00030910204C90164E170E00E945B2DE1E0C2
:103DF000892B09F4E0E02531310570F044E10DC074
:103E0000061517055CF7CE010D960E94A71D0E94AE
:103E100074030F5F1F4FF4CF422F40933807C9013F
:103E200064E170E00E945B2D6E0F60933707109283
:103E30001F0210921E02842F0E9474038091370784
:103E40000E94740380911E020E94740380910401F9
:103E50000E9474030CE010E080E00E9474030150A3
:103E60001109D1F70E940C2400E010E020E2C22EDC
:103E70000431110509F449C00E949215892B09F4F7
:103E800044C08091910490919204892B89F7612C10
:103E9000712C40900B0450900C0464147504F4F4DD
:103EA00020E262167104D1F0F301E35FFB4F8081E1
:103EB000082E000C990B0E94BB2D95EA980F9432A6
:103EC00010F48C2505C09FEB980F9A3108F4806898
:103ED0000E9474038FEF681A780ADBCF20E2421643
:103EE00051043CF480E00E9474038FEF481A580A92
:103EF000F5CF0F5F1F4FBCCF80E00E94740381E0BD
:103F0000681A7108C9F70F5F1F4F0431110520F4BB
:103F100090E2692E712CF0CFD11012C0789483E713
:103F200090E00197F1F70E94EC1D64EF71E080E0F2
:103F300090E00E94300B0E94891DF1100CC018C047
:103F400000E010E00815190549F380E00E947403B1
:103F50000F5F1F4FF7CF8D85882351F0CE010D964F
:103F60000E94111005C06DA07EA0FF24F394BDCE69
:103F7000C65ADF4F0FB6F894DEBF0FBECDBFDF913C
:103F8000CF911F910F91FF90EF90DF90CF90BF9056
:103F9000AF909F908F907F906F905F904F903F90E9
:103FA0002F9008952F923F924F925F926F927F923F
:103FB0008F929F92AF92BF92CF92DF92EF92FF9239
:103FC0000F931F93CF93DF93CDB7DEB7AD970FB6A7
:103FD000F894DEBF0FBECDBF8C01809104010E941A
:103FE000B0190E94711D1D861E861C821B8288EEE0
:103FF00093E0A0E0B0E08D839E83AF83B88780E735
:1040000091E09A838983A8016CEB76E0CE010D964E
:104010000E940D138D85882309F45BC16FEE71E05A
:10402000C8010E94D92D892B49F464E975E080E626
:1040300092E00E94761221E02DA701C01DA66DEF2F
:1040400071E0C8010E945F1981114AC162E072E00B
:10405000C8010E945F19811143C18DA19EA1AFA12A
:10406000B8A51C012D0132E0231A3108410851087E
:10407000712C222079F0812C912C54019394C2014F
:10408000B101A50194010E94912D861A970AA80AF0
:10409000B90A03C0812C912C5401662463948114C5
:1040A0009104A104B10409F4612CC201B10120E022
:1040B00031E040E050E00E94912DF62CF20E0E947B
:1040C0007F190E94F01D0E94A21968EC70E080E048
:1040D00090E00E94300B67E875E080E692E00E9475
:1040E00076120E946A0B6093480270934902809393
:1040F0004A0290934B0271100AC0CE010D960E94A5
:10410000A71DD82ECE010D960E94A71D02C080E8E3
:10411000D12CF894C0900401711005C09DA5911197
:1041200004C091E003C092E001C093E0E92E920147
:1041300081014F2D682F8D2D0E94FD1C0E94591D5D
:10414000CE0101960E947D1B181619060CF096C030
:1041500040E450E064E477E0CE010D960E945A0EF0
:104160007C011816190664F704E417E0F8017110D1
:1041700002C0808177C0508090913D07E9E3F7E06D
:1041800020E030E080E040816901CC0CDD1CCC0CEB
:10419000DD1CD601A40FB11DA657BE4F5C91551171
:1041A0003EC04F5F4083443081F590933D0780933C
:1041B0003C07512C252D30E080913D0790E003977E
:1041C0002817390744F4F901E25CF84F80810E9416
:1041D00074035394EFCF212C312CF101EC0DFD1D14
:1041E000E258FE4F80810E947403FFEF2F1A3F0AAE
:1041F00024E02216310489F71092390710923A0709
:1042000010923B0710923D072FC0811109C0A92FC2
:10421000B0E0A25CB84F5C929F5F81E001C0108269
:104220002F5F3F4F31962330310509F0ACCF90938B
:104230003D0780933C07811117C0312C80913D07C9
:10424000381668F4832D90E0FC01E25CF84F6F01B2
:1042500080810E947403F60110823394EFCF109294
:104260003D07852D0E9474030F5F1F4FC8018454C2
:1042700097408E159F050CF479CF62CF711003C063
:1042800061101CC00EC010E080913D071817C0F7E8
:10429000E12FF0E0E25CF84F80810E9474031F5F21
:1042A000F3CF83E790E00197F1F70E94EC1D78943B
:1042B000FDA5FF2389F10E94891D2EC000E010E0BA
:1042C0000815190571F380E00E9474030F5F1F4FFA
:1042D000F7CF69E775E080E692E00E9476121CC095
:1042E0006FE875E080E692E00E941F0A40E550E02A
:1042F00060E070E0CE010D960E949D0D8DA19EA103
:10430000AFA1B8A51C012D0120E5221A31084108F2
:10431000510877247394ADCEAD960FB6F894DEBFF6
:104320000FBECDBFDF91CF911F910F91FF90EF9006
:10433000DF90CF90BF90AF909F908F907F906F90C5
:104340005F904F903F902F900895BF92CF92DF9251
:10435000EF92FF920F931F93CF93DF93EC010E9494
:10436000711D0E94891D0E94F01D20910104309151
:104370000204C90164E170E00E945B2D41E0892BD9
:1043800009F440E0C9018C1B9D0B459718F4822F5E
:104390008C1B01C084E180933807C90164E170E09F
:1043A0000E945B2D640F60933707809104010E9487
:1043B000B0190E947F19F894809138070E94740305
:1043C000809137070E94740380911E020E9474033B
:1043D000809104010E947403CCE0D0E080E00E9450
:1043E00074032197D9F70E940C24C0E0D0E0E12C9F
:1043F000F12C80E2B82E9FEFE916F10409F458C0C1
:10440000C431D1050CF054C00E949215892B09F4D7
:104410004FC080918F0490919004892B09F048C07F
:104420008091910490919204892B29F780911F0229
:1044300090E0E816F90688F100E010E0C0900B0467
:10444000D0900C040C151D05E4F400321105C9F0E0
:10445000F801E35FFB4F8081082E000C990B0E944E
:10446000BB2D95EA980F943210F48B2505C09FEB75
:10447000980F9A3108F480680E9474030F5F1F4FF1
:10448000DDCF90E2C916D1043CF480E00E947403B1
:104490008FEFC81AD80AF5CF21968FEFE81AF80ADD
:1044A000AACF80E00E94740301501109D1F7219630
:1044B000C431D1051CF400E210E0F3CFC0E7D0E036
:1044C0008AEE0E9474032197D9F778948BE490E0E8
:1044D0000197F1F7DF91CF911F910F91FF90EF902E
:1044E000DF90CF90BF900C94EC1DBF92CF92DF92E3
:1044F000EF92FF920F931F93CF93DF93CDB7DEB769
:10450000C658D1090FB6F894DEBF0FBECDBF7C01EF
:104510000E940C2400E010E062E3C62E61E0D62E7B
:1045200070E8B72E0E949215892B09F464C180911E
:104530008F0490919004892B09F059C180919104C6
:1045400090919204892B09F052C120911F0230E012
:104550000217130708F449C1C801821B930B8E157B
:104560009F0509F042C180918D0490918E04892BA2
:1045700009F41CC16EED71E08DE094E00E94D92D2C
:10458000892B09F072C0109202041092010410925B
:104590000404109203041092900410928F0410925D
:1045A0008E0410928D0410929404109293048091C2
:1045B000FD029091FE020E94C219811113C08FEC7E
:1045C00091E00E94F3148091FD029091FE02FC01A3
:1045D000E65BFD4F2081222321F060E672E00E941D
:1045E0003019FFCF2091EB033091EC031216130624
:1045F0000CF0D1C08091E9039091EA03AC014F5FC8
:104600005F4F463C510554F4853C91050CF40196EE
:10461000FA01E350FD4F66A16111F1CF9093EA03D7
:104620008093E903215031093093EC032093EB038D
:104630005DEEE52E53E0F52E00E010E08091EB03F7
:104640009091EC03081719070CF0A5C0F7016191D0
:1046500071917F016D5D7C4F8091FD029091FE0212
:104660000E94B8140F5F1F4FE9CF0E9406150DEE90
:1046700013E0E12CF12C2091EB033091EC038091BD
:10468000FD029091FE02E216F30694F5F8016081B6
:1046900071816D5D7C4F0E94B814811116C067E670
:1046A00075E080E692E00E941F0AF8016081718146
:1046B0006D5D7C4F80E692E00E94240D6EE575E012
:1046C00080E692E00E9476120DC06AE475E080E612
:1046D00092E00E941F0AF801808191818D5D9C4FBC
:1046E0000E94F314FFEFEF1AFF0A0E5F1F4FC3CFB4
:1046F00021E030E030939404209393046DE074E063
:104700000E94B814811111C067E072E080E692E067
:104710000E94240D6DE074E080E692E00E94240D7A
:1047200085ED91E00E94F31436C020E030E0F901FD
:10473000E35FFB4F8081882319F02F5F3F4FF7CF56
:104740008091E9039091EA03F901E25FFB4F229126
:104750001816190634F4DC01A350BD4F96962C931D
:10476000019724E0ED30F20791F79093EA038093EC
:10477000E9032091EB033091EC03F901EE0FFF1FE9
:10478000E953FC4F019697A386A32F5F3F4F3093C9
:10479000EC032093EB030E94361510921E02109238
:1047A0001F0280E090E00E94A52125C0F09206043F
:1047B000E09205048091090490910A049C838B8304
:1047C000DA82C98280910B0490910C049E838D83C0
:1047D000EDE0F4E0DE0117968B2D01900D928A95A5
:1047E000E1F7CE0107960E94D21F0F5F1F4F0F3FC8
:1047F000110508F497CECA57DF4F0FB6F894DEBF05
:104800000FBECDBFDF91CF911F910F91FF90EF9021
:10481000DF90CF90BF9008958091FD029091FE02AD
:1048200040E050E0BA01895D9D4F0E949D0D1092BD
:1048300004041092030410928E0410928D041092BE
:104840009204109291041092900410928F04089593
:10485000E0918407E11105C081E08093840782EE36
:104860000895E13031F482E0809384078091E90378
:104870000895E23031F483E0809384078091EA0365
:104880000895E33031F484E0809384078091050437
:104890000895E43031F485E0809384078091060424
:1048A0000895E53031F486E0809384078091EB032E
:1048B0000895E63031F487E0809384078091EC031B
:1048C0000895E73031F488E08093840780910104F3
:1048D0000895E83031F489E08093840780910204E0
:1048E000089587EF8E0FEF5FE0938407843168F4BB
:1048F000AE2FB0E01997AE7FA351BC4F8C911196AB
:104900009C91E0FF06C0892F0895F0E0E350FD4F31
:1049100081850895E0918407E11105C081E08093CD
:10492000840782EE0895E13029F492E090938407A1
:1049300090E00CC0E23079F493E0909384072091EA
:10494000E9033091EA03A901582BCA019093EA03C5
:104950008093E90371C0E33029F494E090938407D5
:1049600090E00CC0E43079F495E0909384072091B6
:10497000050430910604A901582BCA01909306043E
:104980008093050459C0E53029F496E0909384079C
:1049900090E00CC0E63079F497E090938407209182
:1049A000EB033091EC03A901582BCA019093EC035F
:1049B0008093EB0341C0E73029F498E0909384079B
:1049C00090E00CC0E83079F499E09093840720914E
:1049D000010430910204A901582BCA0190930204EA
:1049E0008093010429C097EF9E0FEF5FE093840747
:1049F0009431F0F4282F30E04E2F50E08E2F81704C
:104A0000E0FF0EC0FA013997EE7FE351FC4F322FE1
:104A1000222780819181282B392B318320830CC060
:104A2000FA013997EE7FE351FC4F318320830895DB
:104A3000F0E0E350FD4F818780E008958F929F92D0
:104A4000AF92BF92CF92DF92EF92FF92CF93C82F97
:104A500010929A0481E090E0A0E0B0E080939D0481
:104A600090939E04A0939F04B093A00485E994E0E2
:104A70009093B7048093B6041092B5048FEF9FEF24
:104A8000DC018093B8049093B904A093BA04B09366
:104A9000BB04CC2331F1C53008F0DCC020E040E09D
:104AA00050E0BA0185EB94E00E940E0C009709F4E7
:104AB000D1C020E1C29F800D911D11244097FC01BF
:104AC000E254FE4F20812F7709F0C4C038968080D1
:104AD0009180A280B38081149104A104B10421F4D7
:104AE000B9C0812C912C540120E0B501A40185EBC3
:104AF00094E00E940E0CFC01892B09F4ABC0838565
:104B000094858115924009F0A5C08089823009F012
:104B1000A1C0468557854115510509F49BC02585DF
:104B2000209397048FEF820F8093980480E091E0A8
:104B3000291751F031E0380F393019F48093990476
:104B400089C0990F832FF4CF80939904C688D788A2
:104B5000C114D10419F0E12CF12C04C0C4A0D5A0DB
:104B6000E6A0F7A0C092A104D092A204E092A30410
:104B7000F092A404D501C401840F951FA11DB11D9D
:104B80008093A9049093AA04A093AB04B093AC04BF
:104B90002189328930939C0420939B04CC0CDD1C2A
:104BA000EE1CFF1CC80ED91EEA1EFB1EC092B104EB
:104BB000D092B204E092B304F092B40455E0220F14
:104BC000331F5A95E1F721503E4F232F3327269567
:104BD000C20ED31EE11CF11CC092A504D092A60403
:104BE000E092A704F092A8042389348921153105A5
:104BF00021F0C901A0E0B0E004C080A191A1A2A170
:104C0000B3A1B501A4014C195D096E097F09480FD4
:104C1000591F6A1F7B1F0090990404C07695679501
:104C2000579547950A94D2F7DB01CA010196A11D59
:104C3000B11D8093AD049093AE04A093AF04B093E4
:104C4000B004453F8FE058076105710528F48CE0FA
:104C500080939A0480E017C0453F5F4F610571055E
:104C600010F480E10DC084A595A5A6A5B7A58093F5
:104C7000B1049093B204A093B304B093B40480E25F
:104C800080939A0481E0CF91FF90EF90DF90CF90D6
:104C9000BF90AF909F908F900895CF93DF93E1EEF8
:104CA000F5E08491EDECF5E0D491E9EBF5E0C49109
:104CB000CC2391F081110E949B0AEC2FF0E0EE0FC3
:104CC000FF1FE456FA4FA591B491EC91ED2381E0DA
:104CD00090E021F480E002C080E090E0DF91CF918D
:104CE0000895CF93DF93CDB7DEB761970FB6F894F1
:104CF000DEBF0FBECDBF789484B5826084BD84B51D
:104D0000816084BD85B5826085BD85B5816085BDC6
:104D100080916E00816080936E001092810080917E
:104D20008100826080938100809181008160809306
:104D30008100809180008160809380008091B1002B
:104D400084608093B1008091B00081608093B00056
:104D500080917A00846080937A0080917A008260EA
:104D600080937A0080917A00816080937A008091AC
:104D70007A00806880937A001092C1000E949C089B
:104D80000E942C0360E082E00E94F40A61E083E06C
:104D90000E94F40A61E083E00E94C40A60E083E1BB
:104DA0000E94F40A61E083E10E94C40A8AB1806F24
:104DB0008AB987B18F6087B9E0917002F091710272
:104DC00082E08083E0917002F09171021082E091A4
:104DD0006C02F0916D021082E0916E02F0916F0210
:104DE00080E1808310927802E0917402F091750264
:104DF00086E08083E0917202F0917302808180618D
:104E00008083E0917202F0917302808188608083D8
:104E1000E0917202F0917302808180688083E0915A
:104E20007202F091730280818F7D80831092E2067E
:104E30001092DF0683EE96E09093DD068093DC0609
:104E40008AE08093DE060E946A0B8B0161E080910C
:104E5000DE060E94F40A61E08091DE060E94C40A28
:104E60008091DC069091DD06DC01ED91FC910190D2
:104E7000F081E02D099580E48093E0068091DC06C6
:104E80009091DD06DC01ED91FC910280F381E02D33
:104E900060E409954AE0F42E6FEF8091DC06909172
:104EA000DD060E941D12FA94F110F6CF20E030E0EA
:104EB000A90160E08CED96E00E942B18813049F04A
:104EC0000E946A0B601B710B613D774078F381E0B3
:104ED0007CC021E030E040E050E06BE38CED96E0F8
:104EE0000E942B18813011F08AE16FC02AEA31E06C
:104EF00040E050E068E08CED96E00E942B18853091
:104F000011F481E010C034E0F32E8091DC06909122
:104F1000DD060E9424128093E106FA94F110F5CF89
:104F20008A3A59F482E08093E2068091E206823068
:104F300069F0C12CD12C76010EC00E946A0B601B57
:104F4000710B613D774090F282E03FC0C12CD12CC3
:104F5000E12C20E4F22E20E030E0A90167E38CEDA3
:104F600096E00E942B18A701960169E28CED96E06D
:104F70000E942B18882349F00E946A0B601B710B5A
:104F8000613D774040F38AE020C08091E2068230A4
:104F900089F08CED96E00E941D1882E08093E00677
:104FA0008CEB96E00E94111081E00E941E25811179
:104FB00037C031C020E030E0A9016AE38CED96E013
:104FC0000E942B18882341F088E08093DF068CED47
:104FD00096E00E941D1849C08091DC069091DD0684
:104FE0000E942412807C803C19F483E08093E206C6
:104FF0008091DC069091DD060E9424128091DC06EF
:105000009091DD060E9424128091DC069091DD06CD
:105010000E942412BECF80E00E941E25882329F121
:1050200065E974E08CEB96E00E94F70F8823E9F0C5
:105030008091BC068077C9F08CEB96E090934D028E
:1050400080934C0220E030E0A90169E08CED96E00D
:105050000E942B18882309F44AC080E18093DF0660
:105060008CED96E00E941D18AFC062E871E080E60A
:1050700092E00E9476128091DF068823D9F06CEAD4
:1050800070E080E692E00E9476128091DF06813027
:1050900031F46CE770E080E692E00E947612809135
:1050A000DF06882319F160E672E085E994E00E944A
:1050B00030191CC080919A04811107C06EEF70E016
:1050C00080E692E00E94761211C08091BC068111A8
:1050D00007C063EE70E080E692E00E94761206C0A0
:1050E00063ED70E080E692E00E947612FFCF40E12F
:1050F00050E0BE016F5F7F4F8CED96E00E94D618A6
:10510000882309F461C08981807C81F58F81837057
:10511000C82ED12CDC2CCC24DD0CDD0C888524E0C1
:10512000829FC0011124C82AD92A89858295869533
:1051300086958370C82A8FEFC81AD80AE12CF12C03
:105140002A852370220F8B8587FB882780F9282BDF
:105150008E818F7090E0820F911D079704C0CC0C58
:10516000DD1CEE1CFF1C8A95D2F731C0803449F556
:10517000CA84D12CE12CF12C9FEFC91AD90AE90A73
:10518000F90A898590E0A0E0B0E0BA2FA92F982F06
:105190008827C80ED91EEA1EFB1E88858F7390E0F3
:1051A000A0E0B0E0DC0199278827C80ED91EEA1ECE
:1051B000FB1E8AE0CC0CDD1CEE1CFF1C8A95D1F78F
:1051C00006C08BE08093DF06C12CD12C7601C11480
:1051D000D104E104F10439F462E771E080E692E081
:1051E0000E947612B8C065E671E080E692E00E9407
:1051F00076128091E206823039F0833041F08130BE
:10520000A9F461E671E014C06DE571E011C0A0E899
:10521000CA16ADE1DA06ACE2EA06A4E0FA0618F432
:1052200068E571E005C063E571E002C06AE471E021
:1052300080E692E00E94761285E994E09093FE0267
:105240008093FD0280E090E00E94C0198A3C09F042
:105250002EC381E090E00E94C0198E3F09F027C361
:1052600082E090E00E94C019813019F40E94F41D80
:1052700068C0823009F065C01092840783E090E036
:105280000E94C01980931F0280E00E948A24F82E99
:1052900004E010E08CEF800F8F1540F4C8010E94ED
:1052A000C0190E948A240F5F1F4FF4CF0E94061579
:1052B0000DEE13E0E12CF12C8091EB039091EC03C7
:1052C000E816F906B4F5F801608171816D5D7C4FD7
:1052D0008091FD029091FE020E94B814811116C0C7
:1052E00068E371E080E692E00E941F0AD8016D91A8
:1052F0007C916D5D7C4F80E692E00E94240D6FE210
:1053000071E080E692E00E9476120DC06BE171E0E0
:1053100080E692E00E941F0AF801808191818D5DF4
:105320009C4F0E94F314FFEFEF1AFF0A0E5F1F4F0E
:10533000C3CF0E94361580910504909106040E9407
:10534000752280E092E00E94C01980930401809150
:1053500004010E94B019F2E02F2E312C0E944D263C
:10536000892B39F48091590290915A02892B09F4C2
:10537000B3C20E944D26892B09F441C00091590205
:1053800010915A0201301105D1F530925A02209243
:1053900059020E946A0BC0904802D0904902E090E6
:1053A0004A02F0904B02DC01CB018C199D09AE0939
:1053B000BF098093550290935602A0935702B09371
:1053C00058028938E3E19E07A105B1050CF498C2A3
:1053D00080E092E00E94C019809304018091040152
:1053E00081118BC282E080930401809104010E94AC
:1053F000B0196091040180E092E00E94BE19809192
:10540000590290915A02029709F0D6C00E946A0B85
:10541000009148021091490220914A0230914B02BA
:10542000DC01CB01801B910BA20BB30B8D3D954092
:10543000A105B10508F4C0C010925A021092590299
:105440001092550210925602109257021092580272
:10545000109248021092490210924A0210924B0296
:10546000ABC080E692E00E94D908823309F403C100
:105470000CF0ABC0813309F09FC00E946A0B6093AF
:105480004E0270934F0280935002909351020E94FB
:10549000711D0E94F01D0E94A2190E947F1968ECE4
:1054A00070E080E090E00E94300BF12CD12C00E005
:1054B00010E0A12CB12CF4E0AF16B104E9F080E6C5
:1054C00092E00E94FB0818161906ACF70E946A0BBE
:1054D00040904E0250904F026090500270905102E6
:1054E000DC01CB0184199509A609B70981319742DE
:1054F000A105B10508F471C06CE971E080E692E0A5
:105500000E947612025011092801612C712C11277A
:105510000115110509F07FC0812C912C540121E067
:10552000298B181419041A041B040CF0198A0E9400
:105530007F19C090040164E0E62E9301820149893D
:10554000450D6F2D8D2D0E94FD1C0E947F190E941C
:10555000591D00E010E06801E12CF12CC414D504C1
:10556000E604F7040CF460C067E971E080E692E0BD
:105570000E9476120E946A0B00914E0210914F0217
:105580002091500230915102DC01CB01801B910B24
:10559000A20BB30B80319742A105B10508F455C0A9
:1055A0008BE490E00197F1F70E94EC1D64E971E053
:1055B00080E692E00E94761280E692E00E94FB086C
:1055C000181619060CF44DCF5CC0833309F456C08D
:1055D000843391F70E94EC1D51C080E692E00E9456
:1055E000D908A114B10419F48C01112710C0A1E04D
:1055F000AA16B10429F4982F8827080F191F07C08D
:10560000B2E0AB16B10411F0F82E01C0D82EEFEFC6
:10561000AE1ABE0A50CF812C912C54019394801A5B
:10562000910AA108B1087BCF80E692E00E94FB08B6
:10563000181619060CF092CF80E692E00E94D90865
:105640000E9474030F5F1F4F86CFF989FF2309F46F
:10565000A7CFC12CD12C7601C814D904EA04FB04CD
:105660000CF09ECF8AEE0E9474032FEFC21AD20A6A
:10567000E20AF20AF1CF0E94F41D9ECF0E94A21905
:105680009BCF80914702882309F40EC18091460286
:10569000882309F409C180E890E090930601809383
:1056A00005011092520287E090E0FC01EE0FFF1F0F
:1056B000EE0FFF1FEA5DFD4F4081518162817381D2
:1056C0004F3051056105710554F44091520220910B
:1056D000050130910601242B2093520209C040811C
:1056E00051816281738149315105610571055CF415
:1056F00020910501309106013595279530930601DB
:105700002093050110C0109247021092520210928D
:10571000220210922302109224021092250210926B
:10572000210210922002019700F60E94711D8091C3
:105730005202813619F489E991E006C08091520243
:10574000833629F48FE991E00E94D21FADC0809189
:105750005202853619F485EA91E0F6CF8091520223
:10576000873619F48BEA91E0EFCF809152028936A7
:1057700019F489EE91E0E8CF809152028B3619F44A
:1057800081EB91E0E1CF809152028D3619F487EBE5
:1057900091E0DACF809152028F3619F48DEB91E0CF
:1057A000D3CF80915202813719F483EC91E0CCCFB2
:1057B00080915202833719F489EC91E0C5CF809132
:1057C000520286FF4BC0E1E0F0E0F0935402E09318
:1057D0005302809152028334D1F46AE070E080E099
:1057E00090E00E94300B80911F02482F50E02091E2
:1057F000010430910204245131094217530740F546
:105800008C5E80931F0280911E028F5F14C0809176
:105810005202813499F46AE070E080E090E00E94E6
:10582000300B80911F02843198F0845180931F02C5
:1058300080911E02815080931E020AC08091520204
:10584000853491F56AE070E080E090E00E94300BD2
:1058500080911F0290E00E94A52126C080915202F3
:10586000882391F08091520290E0959587958093DE
:1058700052028091520290E001970E94752230926C
:1058800054022092530210C010924702109252020A
:1058900010922202109223021092240210922502EA
:1058A00010922102109220020E949B0957CD6AECAF
:1058B00080E090E00E94BE196EEF81E090E00E94CF
:1058C000BE1960E082E090E00E94BE1960E080E0D6
:1058D00092E00E94BE19C4CC81E090E090935A02FD
:1058E000809359020E946A0B6093480270934902A8
:1058F00080934A0290934B023CCD1092040175CDE7
:10590000813D27E09207A105B10574F18091530212
:10591000909154028230910501F51092840762E063
:1059200082E090E00E94BE1960911F0283E090E047
:105930000E94BE190E942824F82E04E010E08CEF8B
:10594000800F8F1508F05BCD0E942824682FC801B6
:105950000E94BE190F5F1F4FF2CF029708F04FCD84
:1059600060E082E090E049CD853FE1E09E07A1053F
:10597000B1054CF00E94EC1D0E94A2191092540235
:10598000109253023CCD0B97A105B1050CF437CD15
:105990000E94F41D109354020093530230CDE0E6B0
:1059A000F2E01382128288EE93E0A0E0B0E08483FC
:1059B0009583A683B7838EE091E09183808325EC65
:1059C00030E03587248784EC90E09787868780ECE9
:1059D00090E0918B808B81EC90E0938B828B82ECBA
:1059E00090E0958B848B86EC90E0978B868B118E64
:1059F000128E138E148EE5E9F4E015821092BC0627
:105A00001092BD0689E18093DF061092E20688E6D7
:105A100091E09183808386E591E09093E406809302
:105A2000E306EAE0F7E014821582138212828AE428
:105A300091E091838083E6EEF6E014821582138272
:105A4000128291838083EDEFF2E016821782158235
:105A50001482938382833093EA032093E9031092A4
:105A6000EC031092EB0384E1EDEEF3E0DF011D9215
:105A70008A95E9F710920A041092090482E391E0F2
:105A800090930804809307040895F999FECF92BD7E
:105A900081BDF89A992780B50895262FF999FECFF0
:105AA0001FBA92BD81BD20BD0FB6F894FA9AF99A3B
:105AB0000FBE01960895AA1BBB1B51E107C0AA1F88
:105AC000BB1FA617B70710F0A61BB70B881F991F9F
:105AD0005A95A9F780959095BC01CD010895A1E252
:105AE0001A2EAA1BBB1BFD010DC0AA1FBB1FEE1F58
:105AF000FF1FA217B307E407F50720F0A21BB30BA3
:105B0000E40BF50B661F771F881F991F1A9469F71E
:105B100060957095809590959B01AC01BD01CF017A
:105B20000895052E97FB1EF400940E94A82D57FDA2
:105B300007D00E946F2D07FC03D04EF40C94A82DC3
:105B400050954095309521953F4F4F4F5F4F0895A9
:105B500090958095709561957F4F8F4F9F4F0895D9
:105B6000EE0FFF1F0590F491E02D099481E090E085
:105B7000F8940C94E92D9111089581548A5108F4F8
:105B8000805E855A0895FB01DC0104C08D9101906F
:105B9000801921F441505040C8F7881B990B089593
:105BA000FB01DC0102C001900D9241505040D8F73A
:105BB0000895FB01DC018D91019080190110D9F34A
:105BC000990B0895FB01DC0101900D920020E1F793
:065BD0000895F894FFCFD8
:105BD600CA09CA090280000100000000000032095B
:105BE6009F08CA087909FB08D908ED0800000000DB
:105BF6002B129F08290328032B122B122B120000AD
:105C060000003B179F0829032803000000002B1201
:105C16009F082903280300000000D01CF41C290358
:105C2600FA1C0000000016181518E117C1177117A5
:105C36005217501700000000921C261C000000009E
:105C4600E21CCD1C2903F71C7D1BBE1DC11DA936F8
:105C5600850178C601BAE601584CA937850178E670
:105C660001BAC601584C0D0A00302E707267003119
:105C76002E70726700322E70726700332E70726754
:105C860000352E70726700362E70726700372E70E0
:105C9600726700382E70726700392E707267006363
:105CA600686469722829206661696C6564002E2E15
:105CB600006972716861636B36342E707267006BAF
:105CC6006579626F6F7465722E707267002E6372EB
:0E5CD60074002E435254006368646972280003
:00000001FF
